:020000021000EC
:10E000000C941FF10C9496F30C9431F10C9431F1B3
:10E010000C9431F10C9431F10C9431F10C9431F1F8
:10E020000C9431F10C9431F10C9431F10C9431F1E8
:10E030000C9431F10C9431F10C9431F10C9431F1D8
:10E040000C9431F10C9431F10C94C7F30C9431F130
:10E050000C9458F50C948AF50C9431F10C9431F130
:10E060000C9431F10C9431F10C9431F10C9431F1A8
:10E070000C941FF60C9451F60C9431F10C9431F180
:10E080000C9431F10C9431F10C9431F12E0070614B
:10E09000676553697A6520616E6420626C6F636B9B
:10E0A000506F73206469666665720A00546F206D54
:10E0B000616E79206461746120666F72207061679F
:10E0C0006553697A650A00626C6F636B4C656E20FC
:10E0D000646966666572207061676553697A650A6E
:10E0E0000057726F6E67204D73674964210A0052B2
:10E0F000657472616E736D69742C207265666C61F3
:10E100007368210A00476F74206F74686572206D10
:10E110007367547970650A00526563656976652096
:10E120006669726D776172650A00476F74204342B9
:10E13000206D73670A005761697420666F7220430F
:10E1400042206D73670A00545820626F6F746C6FC1
:10E15000616465722073657175656E63650A00544C
:10E16000696D656F75740A00537461727420417033
:10E17000700A00426F6F746C6F6164657220736522
:10E180006C66557064617465210A00706167654151
:10E19000646472206578636565647320666C61737E
:10E1A00068206D656D6F72790A00537769746368D2
:10E1B00020746F203130306B206D6F64650A000A67
:10E1C00041736B53696E204F544120426F6F746CE2
:10E1D0006F616465722056302E372E300A0A005364
:10E1E000776974636820746F2031306B206D6F64C1
:10E1F000650A000B08105B11F81547191D1A1C1B46
:10E20000C71C001DB221B623EA002E012E02060310
:10E210000D04E905CA063D070C0B060D210E650F1E
:10E220005010C8119312031534160117301818191D
:10E23000161B432156250026112D353EC3001124FF
:10E240001FBECFEFD0E4DEBFCDBF22E0A0E0B1E043
:10E2500001C01D92A631B207E1F70E94E6F60C94C8
:10E2600089F70C9400F09FB7F89485B7282F2160A8
:10E2700025BF826085BF9FBF85B5826085BD16BC06
:10E28000EEE6F0E080818160808381E08DBB82E0FA
:10E29000809369000895CF92DF92EF92FF920F93DF
:10E2A0001F9361302FED720721E08207910550F036
:10E2B0008BE891EE1F910F91FF90EF90DF90CF9040
:10E2C0000C9410F6F894F999FECF23E0FB018093AB
:10E2D0005B0020935700E89507B600FCFDCFDA01FC
:10E2E00053956B017C0121E03C911196EC911197C3
:10E2F000F0E0FE2FEE278F01030F111D0801F6013C
:10E30000E0925B0020935700E8951124129632E0CA
:10E31000C30ED11CE11CF11C4A175B0729F725E04D
:10E32000FB0180935B0020935700E89507B600FC43
:10E33000FDCF81E180935700E89578941F910F916C
:10E34000FF90EF90DF90CF900895CF93DF9380916F
:10E3500002018823B1F1F894109202014091DA0190
:10E3600040939E019091DB0186E7892780939F016E
:10E37000EBEDF1E0C0EAD1E0A6E9B1E022E080E017
:10E38000241790F49191945230819327999339EF07
:10E39000320F333030F43C9181E0931380E09313DB
:10E3A00003C02F5F1196ECCF30E0F901E256FE4F2B
:10E3B000D901A652BE4F2C919091A0019227908333
:10E3C0007894DF91CF910895DC0111968C9111978B
:10E3D00096E7982711969C93119712962C91129775
:10E3E00082E03C91E82FF0E0EA0FFB1F831730F446
:10E3F00094523081932790838F5FF3CF808182275F
:10E400008083F89460E0CD010E946DF478940895C3
:10E41000CF93DF93CDB7DEB72B970FB6F894DEBF5F
:10E420000FBECDBFFC018AE0898381818A8380E8A9
:10E430008B8382E08C83ABE9B1E08C918D83119664
:10E440008C9111978E8312968C918F83848188870B
:10E450008581898786818A876B87CE0101960E9494
:10E46000E4F12B960FB6F894DEBF0FBECDBFDF915F
:10E47000CF910895E0E0F0E084913196FDCF0E94C5
:10E480003AF2611103C0FC01228125FD0C9408F2CF
:10E49000089580910001909101018133954730F0FA
:10E4A0008FE591EE0E9410F60E943AF20895CF9304
:10E4B000DF93CDB7DEB765970FB6F894DEBF0FBE1A
:10E4C000CDBF87E491EE0E9410F684E189831A8221
:10E4D0001B8280E18C83EBE9F1E080818D83818177
:10E4E0008E8382818F83188619861A861B86EDE8B3
:10E4F000F1E080818C8781818D8782818E87838105
:10E500008F878481888B8581898B86818A8B87819F
:10E510008B8B80858C8B81858D8BCE0101960E94A3
:10E52000E4F165960FB6F894DEBF0FBECDBFDF9164
:10E53000CF91089586E391EE0E9410F610920101AA
:10E54000109200010E9449F20E94A5F18823D1F3A4
:10E550008091A1018B3C49F48AE291EE0E9410F671
:10E5600060E08EE991E00C9441F260E88EE991E080
:10E570000E9408F2E7CFCF93DF93CDB7DEB7DA95ED
:10E580000FB6F894DEBF0FBECDBFE0909F01109292
:10E5900001011092000188E191EE0E9410F6812C99
:10E5A000912C540100E010E0F12C0E9449F20E94ED
:10E5B000A5F18823D1F38091A1018A3C19F085E06F
:10E5C00091EE32C080919F01E81210C0F1100EC090
:10E5D00081149104A104B10449F021E0821A910848
:10E5E000A108B1088FEE90EE0E9410F680919F0175
:10E5F0008E1550F485E78E1520F48FE78E0D843745
:10E6000018F481EE90EE4AC0F1101EC08091A8016E
:10E6100090E0982F88272091A901820F911D8115E4
:10E62000914029F087EC90EE0E9410F6BECF009149
:10E630009E0110E00B501109A8016AEA71E0CE01B9
:10E6400001960E9480F71DC040919E0150E0495004
:10E6500051096A01C00ED11E81E0C816D80618F013
:10E660008CEA90EE1BC068EA71E081E090E08C0FCC
:10E670009D1F800F911F0E9480F721E08601F212FA
:10E6800094CF8091A001803219F0FF24F3948DCFB4
:10E69000011581E0180729F08EE890EE0E9410F62F
:10E6A00083CF8CE890EE0E9410F6289A9A2D892D3F
:10E6B000782D6627AE014F5F5F4F0E944BF12FEF21
:10E6C000821A920AA20AB20A109201011092000163
:10E6D0002898E0909F0160E08EE991E00E9441F26D
:10E6E00063CFFC0190E0941701F1289A20E030E01C
:10E6F0002E173F0749F0AFECB7E01197F1F700C0D4
:10E7000000002F5F3F4FF4CF289820E030E026171D
:10E71000370749F0AFECB7E01197F1F700C0000000
:10E720002F5F3F4FF4CF9F5FDECF08951F920F9270
:10E730000FB60F9211240BB60F922F933F934F9366
:10E740005F936F937F938F939F93AF93BF93EF9359
:10E75000FF93F8948AED91E00E94A1F4882319F0C8
:10E7600081E0809302017894FF91EF91BF91AF9186
:10E770009F918F917F916F915F914F913F912F91D9
:10E780000F900BBE0F900FBE0F901F9018951F9209
:10E790000F920FB60F9211248F939F9316BC809106
:10E7A0000001909101010196909301018093000175
:10E7B0009F918F910F900FBE0F901F901895ECEFC7
:10E7C000FFED859194918131974499F483E791EE1F
:10E7D0000E9410F68FEF99EF0197F1F700C000004B
:10E7E0004AE062E370E082E390E00E9471F30E94ED
:10E7F00080FF88E691EE0E9410F6EFEFF9EF319777
:10E80000F1F700C000005D982898F89485B7982F1C
:10E81000916095BF8D7F85BFE0E0F0E009948EBDEB
:10E820000DB407FEFDCF8EB508952C982E99FECF1E
:10E830000E940FF42C9A0895FF920F931F93CF9389
:10E84000DF93F62E072F142F2C982E99FECF80647D
:10E850000E940FF4CF2DD02FCE01810F911D8C017E
:10E86000C017D10721F089910E940FF4F9CF2C9A9B
:10E87000DF91CF911F910F91FF900895FF920F9319
:10E880001F93CF93DF93F82E092F142F2C982E99D6
:10E89000FECF862F806C0E940FF4CF2DD02FCE019B
:10E8A000810F911D8C01C017D10729F080E00E94D3
:10E8B0000FF48993F8CF2C9ADF91CF911F910F918C
:10E8C000FF9008952C982E99FECF862B0E940FF46E
:10E8D00080E00E940FF42C9A0895CF93DF93EC010F
:10E8E00086E30E9415F48AE30E9415F48BE30E94EC
:10E8F00015F48FEC97E00197F1F700C00000488114
:10E900004F5FBE018FE30E941CF48AE30E9415F45E
:10E9100085E30E9415F4C8EC60EC85E30E9462F484
:10E920008D3061F060EC85E30E9462F4833131F454
:10E930009AE19A95F1F700C0C15071F7DF91CF913C
:10E940000895CF93DF93EC0160EC8BE30E9462F4B7
:10E95000982F9F7749F087FD07C060E88FE30E94FA
:10E9600062F488838D3310F0188217C0482F6FE34C
:10E97000CE0101960E943EF460E88FE30E9462F4AB
:10E9800060E88FE30E9462F4982F9F7790939A013A
:10E99000881F8827881F809398018AE30E9415F4B6
:10E9A00086E30E9415F484E30E9415F48CE30E9430
:10E9B00015F48881DF91CF910895CF93C62F2C98BD
:10E9C0002E99FECF0E940FF48C2F0E940FF42C9AE8
:10E9D000CF9108950F931F93CF93DF93182FF8943F
:10E9E000249A259A2698279A52982C9A2F9A2D98ED
:10E9F00080E58CBD2C9A80E58A95F1F72C9890E5FE
:10EA00009A95F1F72C9AE8E7EA95F1F780E30E94EE
:10EA100015F487EC90E00197F1F700C00000C9E021
:10EA2000D2EEFE0131966491FE0184910E94DDF4E4
:10EA30002296F2EECD33DF07A1F711110AC083E36E
:10EA40000E9415F48FE39FE10197F1F700C00000E9
:10EA500010C0C3EFD1EE09E012EEFE0131966491D1
:10EA6000FE0184910E94DDF422960C171D07A9F780
:10EA7000E6CF84E30E9415F460EC85E30E9462F423
:10EA80008D30B9F760EC8EE30E94DDF484E30E94E0
:10EA900015F48CE30E9415F48FE697E10197F1F7E6
:10EAA00000C000007894DF91CF911F910F910895DD
:10EAB0001F920F920FB60F9211240BB60F922F9345
:10EAC0008F939F93EF93FF938091C0009091C60026
:10EAD0008C71E0914A01EF5FEF7120914901E217DB
:10EAE00039F0E0934A01F0E0E35BFE4F908301C010
:10EAF00082E090914801892B80934801FF91EF912A
:10EB00009F918F912F910F900BBE0F900FBE0F9082
:10EB10001F9018951F920F920FB60F9211240BB6EB
:10EB20000F928F939F93EF93FF9390914C0180915D
:10EB30004B01981769F0E0914B01EF5FEF71E093A3
:10EB40004B01F0E0E359FE4F80818093C60005C081
:10EB50008091C1008F7D8093C100FF91EF919F91C3
:10EB60008F910F900BBE0F900FBE0F901F901895B6
:10EB700010924C0110924B0110924A0110924901DF
:10EB800097FF03C022E02093C00090789093C500C7
:10EB90008093C40088E98093C10086E08093C2001E
:10EBA000089590914A01809149019817A9F0909198
:10EBB00049019F5F9F71E92FF0E0E35BFE4F2081E9
:10EBC00080914801909349011092480190E0982F5C
:10EBD0008827820F911D089580E091E0089590911B
:10EBE0004C019F5F9F7120914B019217E1F3E92F38
:10EBF000F0E0E359FE4F808390934C018091C10077
:10EC000080628093C1000895CF93DF93EC018991D6
:10EC1000882319F00E94EFF5FACFDF91CF91089584
:10EC2000CF93DF93FC018491EF012196882321F09B
:10EC30000E94EFF5FE01F7CFDF91CF9108951F926B
:10EC40000F920FB60F9211240BB60F922F938F9342
:10EC50009F93EF93FF938091C8009091CE008C71A9
:10EC6000E0910501EF5FEF7120910401E21739F0A7
:10EC7000E0930501F0E0E85FFE4F908301C082E081
:10EC800090910301892B80930301FF91EF919F9154
:10EC90008F912F910F900BBE0F900FBE0F901F9072
:10ECA00018951F920F920FB60F9211240BB60F9268
:10ECB0008F939F93EF93FF939091070180910601AB
:10ECC000981769F0E0910601EF5FEF71E09306019C
:10ECD000F0E0E85DFE4F80818093CE0005C080911A
:10ECE000C9008F7D8093C900FF91EF919F918F9113
:10ECF0000F900BBE0F900FBE0F901F9018951092A3
:10ED0000070110920601109205011092040197FF6D
:10ED100003C022E02093C80090789093CD008093A8
:10ED2000CC0088E98093C90086E08093CA000895EA
:10ED300090910501809104019817A9F09091040128
:10ED40009F5F9F71E92FF0E0E85FFE4F2081809187
:10ED50000301909304011092030190E0982F8827FB
:10ED6000820F911D089580E091E008959091070130
:10ED70009F5F9F71209106019217E1F3E92FF0E068
:10ED8000E85DFE4F8083909307018091C900806207
:10ED90008093C9000895CF93DF93EC018991882374
:10EDA00019F00E94B6F6FACFDF91CF910895CF9374
:10EDB000DF93FC018491EF012196882321F00E94CA
:10EDC000B6F6FE01F7CFDF91CF910895C4B7C3FB2C
:10EDD000CC27C0F914BEA8950FB6F894A8958091D9
:10EDE0006000886180936000109260000FBE5598AB
:10EDF0005D9A2AE12A95F1F700C0209A4D9B33C015
:10EE0000C11131C040E06CE271E08CE291E00E94FF
:10EE100071F38FEF94E32CE0815090402040E1F7B4
:10EE200000C0000047E066E970E086E990E00E94DB
:10EE300071F38FEF94E32CE0815090402040E1F794
:10EE400000C0000040E06CE271E08CE291E00E94C2
:10EE500071F38FEF99E628E1815090402040E1F76F
:10EE600000C0000007C041E068EC70E089E190E07C
:10EE70000E9471F30E9433F18FED91EE0E9410F623
:10EE800080E00E94EAF488E090E00E94B8F58FEB01
:10EE900091EE0E9410F64D9B04C0C11102C00E9469
:10EEA0003AF241E068EC70E089E190E00E9471F391
:10EEB00043E050E06CEF7FEF8BE991E00E9477F741
:10EEC0004AE050E062EF7FEF8DE891E00E9477F733
:10EED0000E9457F20E949AF28AEA91EE0E9410F67E
:10EEE00081E00E94EAF40E949AF20E94BBF2FB01C8
:10EEF000DC0102C005900D9241505040D8F70895B2
:10EF0000FB01DC0102C001900D9241505040D8F746
:06EF10000895F894FFCF04
:10FF0000F894289A80E090E0DC0113E001E025E01D
:10FF1000B22E6C017D0120EED20E21E0E21EF11C1A
:10FF2000F601E0925B0010935700E89507B600FCDD
:10FF3000FDCFAC01BD0120E030E0F901E80FF91F71
:10FF4000C591D4912A013B01E0EE5E0EE1E06E1E08
:10FF5000711C0E01F20160925B0000935700E8955E
:10FF600011242E5F3F4F4E5F5F4F6F4F7F4F211524
:10FF7000E1E03E0711F7F601E0925B00B092570016
:10FF8000E89507B600FCFDCF9F5FAF4FBF4F8115CF
:10FF90002FE19207A105B10509F0BBCF40E05FED6D
:10FFA00061E070E083E0FA0160935B0080935700AA
:10FFB000E89507B600FCFDCF81E180935700E895F6
:10FFC00028989EE088E10FB6F894A8958093600089
:08FFD0000FBE90936000FFCF0B
:02FFF0001234C9
:0AFFF200444D5931323334353637AF
:03FFFC00456789CD
:040000031000E00009
:00000001FF
