:10E000000C9424710C94F5720C9436710C94367146
:10E010000C9436710C9436710C9436710C943671E4
:10E020000C9436710C9436710C9436710C943671D4
:10E030000C9436710C9436710C9436710C943671C4
:10E040000C9436710C9436710C9422730C943671C6
:10E050000C949A750C94C8750C9436710C943671A6
:10E060000C9436710C9436710C9436710C94367194
:10E070000C9459760C9487760C9436712E0070614E
:10E08000676553697A6520616E6420626C6F636BAB
:10E09000506F73206469666665720A00546F206D64
:10E0A000616E79206461746120666F7220706167AF
:10E0B0006553697A650A00626C6F636B4C656E200C
:10E0C000646966666572207061676553697A650A7E
:10E0D0000057726F6E67204D73674964210A0052C2
:10E0E000657472616E736D69742C207265666C6103
:10E0F0007368210A00476F74206F74686572206D21
:10E100007367547970650A005265636569766520A6
:10E110006669726D776172650A00476F74204342C9
:10E12000206D73670A005761697420666F7220431F
:10E1300042206D73670A00545820626F6F746C6FD1
:10E14000616465722073657175656E63650A00545C
:10E15000696D656F75740A00537461727420417043
:10E16000700A00426F6F746C6F6164657220736532
:10E170006C66557064617465210A004352432066E1
:10E1800061696C2C205265626F6F740A00435243C0
:10E19000204F4B0A007061676541646472206578A6
:10E1A000636565647320666C617368206D656D6F6F
:10E1B00072790A0053776974636820746F20313074
:10E1C000306B206D6F64650A000A41736B53696E92
:10E1D000204F544120426F6F746C6F6164657220F0
:10E1E00056302E372E300A0A005377697463682040
:10E1F000746F2031306B206D6F64650A000B08105E
:10E200005B11F81547191D1A1C1BC71C001DB221F4
:10E21000B623EA002E012E0206030D04E905CA0604
:10E220003D070C0B060D210E650F5010C8119312FF
:10E2300003153416011730181819161B43215625DB
:10E240000026112D353EC30011241FBECFEFD0E1B3
:10E25000DEBFCDBF22E0A0E0B1E001C01D92A6313B
:10E26000B207E1F70E9418770C94BE770C94007007
:10E2700098E09B01660F771F87FD616037FF04C040
:10E2800021E2622720E17227880F915091F7CB019C
:10E2900008959FB7F89485B7282F216025BF826025
:10E2A00085BF9FBF85B5826085BD16BCEEE6F0E0F8
:10E2B00080818160808381E08DBB82E080936900F2
:10E2C00008950F931F93CF93DF9361302FED720763
:10E2D0008105910540F085E991EEDF91CF911F9185
:10E2E0000F910C944A76F894F999FECF8B0123E0B4
:10E2F000FB0120935700E89507B600FCFDCF9A017B
:10E300003395DA01C1E0A8014A1B5B0BDC91FA01ED
:10E31000EA0FFB1F11961C911197012F10E0102F8F
:10E3200000270D0F111D0801C0935700E895112417
:10E330001296A217B30751F725E0FB01209357006F
:10E34000E89507B600FCFDCF81E180935700E89582
:10E350007894DF91CF911F910F910895CF93DF9320
:10E36000809102018823B1F1F8941092020140914A
:10E37000DA0140939E019091DB0186E78927809323
:10E380009F01EBEDF1E0C0EAD1E0A6E9B1E022E0C7
:10E3900080E0241790F491919452308193279993BF
:10E3A00039EF320F333030F43C9181E0931380E049
:10E3B000931303C02F5F1196ECCF30E0F901E256C2
:10E3C000FE4FD901A652BE4F2C919091A0019227E9
:10E3D00090837894DF91CF910895DC0111968C9110
:10E3E000119796E7982711969C93119712962C9166
:10E3F000129782E03C91E82FF0E0EA0FFB1F8317B1
:10E4000030F494523081932790838F5FF3CF8081D3
:10E4100082278083F89460E0CD010E94AF747894E5
:10E420000895CF93DF93CDB7DEB72B970FB6F8944F
:10E43000DEBF0FBECDBFFC018AE0898381818A8364
:10E4400080E88B8382E08C83ABE9B1E08C918D8393
:10E4500011968C9111978E8312968C918F83848163
:10E4600088878581898786818A876B87CE01019617
:10E470000E94ED712B960FB6F894DEBF0FBECDBF94
:10E48000DF91CF910895CF93DF93C0E0D0E06FEF9D
:10E490007FEFFE0184910E943871BC012196CE3F2E
:10E4A000FFEDDF07B1F780E00E943871BC0180E02A
:10E4B0000E943871AC01FE012591349181E0421730
:10E4C000530709F080E0DF91CF910895611103C0F7
:10E4D000FC01228125FD0C9411720895CF93DF93E6
:10E4E000CDB7DEB765970FB6F894DEBF0FBECDBFD0
:10E4F00087E391EE0E944A7684E189831A821B8227
:10E5000080E18C83EBE9F1E080818D8381818E83D2
:10E5100082818F83188619861A861B86EDE8F1E0C2
:10E5200080818C8781818D8782818E8783818F878F
:10E530008481888B8581898B86818A8B87818B8B6F
:10E5400080858C8B81858D8BCE0101960E94ED712B
:10E5500065960FB6F894DEBF0FBECDBFDF91CF91A9
:10E560000895FC0190E0941701F1289A20E030E032
:10E570002E173F0749F0AFECB7E01197F1F700C055
:10E5800000002F5F3F4FF4CF289820E030E026179F
:10E59000370749F0AFECB7E01197F1F700C0000082
:10E5A0002F5F3F4FF4CF9F5FDECF08950E944372ED
:10E5B000882321F08DE891EE0C944A7641E061E0E9
:10E5C00070E080ED97E00E94B1728BE791EE0E94BF
:10E5D0004A76A8959EE088E10FB6F894A8958093B6
:10E5E00060000FBE90936000FFCF1F920F920FB696
:10E5F0000F9211242F933F934F935F936F937F93C9
:10E600008F939F93AF93BF93EF93FF93F8948AED0B
:10E6100091E00E94E374882319F081E08093020165
:10E620007894FF91EF91BF91AF919F918F917F91DE
:10E630006F915F914F913F912F910F900FBE0F906F
:10E640001F9018951F920F920FB60F9211248F935F
:10E650009F9316BC809100019091010101969093C7
:10E660000101809300019F918F910F900FBE0F9039
:10E670001F901895ECEFFFED8591949181319744AF
:10E6800099F483E691EE0E944A768FEF99EF019715
:10E69000F1F700C000004AE062E370E082E390E03E
:10E6A0000E94B1720E94807F88E591EE0E944A76B6
:10E6B000EFEFF9EF3197F1F700C000005D9828986F
:10E6C000F89485B7982F916095BF8D7F85BFE0E066
:10E6D000F0E0099480910001909101018133954708
:10E6E00040F08FE491EE0E944A760E94D6720C941C
:10E6F0003A73089586E291EE0E944A7610920101E3
:10E70000109200010E946A730E94AE718823D1F3B7
:10E710008091A1018B3C49F48AE191EE0E944A76F6
:10E7200060E08EE991E00C94667260E88EE991E019
:10E730000E941172E7CFCF93DF93CDB7DEB7DA95A2
:10E740000FB6F894DEBF0FBECDBFE0909F011092D0
:10E7500001011092000188E091EE0E944A76812C1E
:10E76000912C540100E010E0F12C0E946A730E9489
:10E77000AE718823D1F38091A1018A3C19F085EF15
:10E7800090EE32C080919F01E81210C0F1100EC0CF
:10E7900081149104A104B10449F021E0821A910886
:10E7A000A108B1088FED90EE0E944A7680919F01FA
:10E7B0008E1550F485E78E1520F48FE78E0D843783
:10E7C00018F481ED90EE4AC0F1101EC08091A801AE
:10E7D00090E0982F88272091A901820F911D811523
:10E7E000914029F087EB90EE0E944A76BECF0091CF
:10E7F0009E0110E00B501109A8016AEA71E0CE01F8
:10E8000001960E94B5771DC040919E0150E049508D
:10E8100051096A01C00ED11E81E0C816D80618F051
:10E820008CE990EE1BC068EA71E081E090E08C0F0B
:10E830009D1F800F911F0E94B57721E08601F21283
:10E8400094CF8091A001803219F0FF24F3948DCFF2
:10E85000011581E0180729F08EE790EE0E944A76B4
:10E8600083CF8CE790EE0E944A76289A9A2D892DC4
:10E87000782D6627AE014F5F5F4F0E9461712FEFC9
:10E88000821A920AA20AB20A1092010110920001A1
:10E890002898E0909F0160E08EE991E00E94667206
:10E8A00063CF8EBD0DB407FEFDCF8EB508952C98B5
:10E8B0002E99FECF0E9451742C9A0895FF920F93C7
:10E8C0001F93CF93DF93F62E072F142F2C982E999A
:10E8D000FECF80640E945174CF2DD02FCE01810FC6
:10E8E000911D8C01C017D10721F089910E945174AC
:10E8F000F9CF2C9ADF91CF911F910F91FF9008953E
:10E90000FF920F931F93CF93DF93F82E092F142FAD
:10E910002C982E99FECF862F806C0E945174CF2D9B
:10E92000D02FCE01810F911D8C01C017D10729F086
:10E9300080E00E9451748993F8CF2C9ADF91CF9197
:10E940001F910F91FF9008952C982E99FECF862B42
:10E950000E94517480E00E9451742C9A0895CF93C4
:10E96000DF93EC0186E30E9457748AE30E94577498
:10E970008BE30E9457748FEC97E00197F1F700C08A
:10E98000000048814F5FBE018FE30E945E748AE3FE
:10E990000E94577485E30E945774C8EC60EC85E3CD
:10E9A0000E94A4748D3061F060EC85E30E94A47431
:10E9B000833131F49AE19A95F1F700C0C15071F7B3
:10E9C000DF91CF910895CF93DF93EC0160EC8BE35F
:10E9D0000E94A474982F9F7749F087FD07C060E8D4
:10E9E0008FE30E94A47488838D3310F0188217C0BF
:10E9F000482F6FE3CE0101960E94807460E88FE398
:10EA00000E94A47460E88FE30E94A474982F9F77FB
:10EA100090939A01881F8827881F809398018AE322
:10EA20000E94577486E30E94577484E30E945774CF
:10EA30008CE30E9457748881DF91CF910895CF9322
:10EA4000C62F2C982E99FECF0E9451748C2F0E94B5
:10EA500051742C9ACF9108950F931F93CF93DF9306
:10EA6000182FF894249A259A2698279A52982C9A27
:10EA70002F9A2D9880E58CBD2C9A80E58A95F1F728
:10EA80002C9890E59A95F1F72C9AE8E7EA95F1F73A
:10EA900080E30E94577487EC90E00197F1F700C083
:10EAA0000000C3E1D2EEFE0131966491FE01849133
:10EAB0000E941F752296F2EEC734DF07A1F71111ED
:10EAC0000AC083E30E9457748FE39FE10197F1F737
:10EAD00000C0000010C0CDEFD1EE03E112EEFE0148
:10EAE00031966491FE0184910E941F7522960C1745
:10EAF0001D07A9F7E6CF84E30E94577460EC85E315
:10EB00000E94A4748D30B9F760EC8EE30E941F75EB
:10EB100084E30E9457748CE30E9457748FE697E158
:10EB20000197F1F700C000007894DF91CF911F9119
:10EB30000F9108951F920F920FB60F9211242F93E9
:10EB40008F939F93EF93FF938091C0009091C600A5
:10EB50008C71E0914A01EF5FEF7120914901E2175A
:10EB600039F0E0934A01F0E0E35BFE4F908301C08F
:10EB700082E090914801892B80934801FF91EF91A9
:10EB80009F918F912F910F900FBE0F901F9018950E
:10EB90001F920F920FB60F9211248F939F93EF93B2
:10EBA000FF9390914C0180914B01981769F0E0918F
:10EBB0004B01EF5FEF71E0934B01F0E0E359FE4F43
:10EBC00080818093C60005C08091C1008F7D8093B5
:10EBD000C100FF91EF919F918F910F900FBE0F9009
:10EBE0001F90189510924C0110924B0110924A01FF
:10EBF0001092490197FF03C022E02093C000907853
:10EC00009093C5008093C40088E98093C10086E09A
:10EC10008093C200089590914A018091490198170C
:10EC2000A9F0909149019F5F9F71E92FF0E0E35BAC
:10EC3000FE4F208180914801909349011092480134
:10EC400090E0982F8827820F911D089580E091E031
:10EC5000089590914C019F5F9F7120914B019217F5
:10EC6000E1F3E92FF0E0E359FE4F808390934C01EC
:10EC70008091C10080628093C1000895CF93DF939B
:10EC8000EC018991882319F00E942976FACFDF914F
:10EC9000CF910895CF93DF93FC018491EF012196EA
:10ECA000882321F00E942976FE01F7CFDF91CF91D2
:10ECB00008951F920F920FB60F9211242F938F93E6
:10ECC0009F93EF93FF938091C8009091CE008C7139
:10ECD000E0910501EF5FEF7120910401E21739F037
:10ECE000E0930501F0E0E85FFE4F908301C082E011
:10ECF00090910301892B80930301FF91EF919F91E4
:10ED00008F912F910F900FBE0F901F9018951F920B
:10ED10000F920FB60F9211248F939F93EF93FF934F
:10ED20009091070180910601981769F0E091060122
:10ED3000EF5FEF71E0930601F0E0E85DFE4F808148
:10ED40008093CE0005C08091C9008F7D8093C9005B
:10ED5000FF91EF919F918F910F900FBE0F901F9099
:10ED60001895109207011092060110920501109259
:10ED7000040197FF03C022E02093C800907890938D
:10ED8000CD008093CC0088E98093C90086E0809311
:10ED9000CA00089590910501809104019817A9F087
:10EDA000909104019F5F9F71E92FF0E0E85FFE4FB3
:10EDB000208180910301909304011092030190E05F
:10EDC000982F8827820F911D089580E091E0089583
:10EDD000909107019F5F9F71209106019217E1F3C7
:10EDE000E92FF0E0E85DFE4F80839093070180916A
:10EDF000C90080628093C9000895CF93DF93EC012E
:10EE00008991882319F00E94E876FACFDF91CF919B
:10EE10000895CF93DF93FC018491EF01219688231D
:10EE200021F00E94E876FE01F7CFDF91CF9108959F
:10EE3000C4B7C3FBCC27C0F914BEA8950FB6F8948D
:10EE4000A8958091600088618093600010926000B6
:10EE50000FBE55985D9A2AE12A95F1F700C0209AD5
:10EE60004D9B33C0C11131C040E06CE271E08CE2D7
:10EE700091E00E94B1728FEF94E32CE081509040BA
:10EE80002040E1F700C0000047E066E970E086E955
:10EE900090E00E94B1728FEF94E32CE0815090409B
:10EEA0002040E1F700C0000040E06CE271E08CE23D
:10EEB00091E00E94B1728FEF99E628E18150904075
:10EEC0002040E1F700C0000007C041E068EC70E0BE
:10EED00089E190E00E94B1720E94497189EE91EE41
:10EEE0000E944A7680E00E942C7588E090E00E94A3
:10EEF000F27589EC91EE0E944A764D9B07C0C111D4
:10EF000005C00E94437281110E943A7341E068EC8F
:10EF100070E089E190E00E94B17243E050E06CEF54
:10EF20007FEF8BE991E00E94AC774AE050E062EF1E
:10EF30007FEF8DE891E00E94AC770E946E720E9494
:10EF40007A7384EB91EE0E944A7681E00E942C75E0
:10EF50000E947A730E949B73FB01DC0102C0059042
:10EF60000D9241505040D8F70895FB01DC0102C0DA
:10EF700001900D9241505040D8F70895F894FFCF7A
:10FF0000F894289A80E090E063E071E0A5E0AC010D
:10FF10005052FA0160935700E89507B600FCFDCFF8
:10FF20009C013395FC01C591D491FC01F0520E0166
:10FF300070935700E895112402968217930791F762
:10FF4000FA01A0935700E89507B600FCFDCFC90160
:10FF500021153F41E1F6E0E0FFED83E0809357009B
:10FF6000E89507B600FCFDCF81E180935700E89546
:10FF700028989EE088E10FB6F894A89580936000D9
:08FF80000FBE90936000FFCF5B
:02FFF0001234C9
:0AFFF200444D5931323334353637AF
:03FFFC00456789CD
:040000030000E00019
:00000001FF
